{
  "contracts/Elections.sol": {
    "USElection": {
      "abi": [
        {
          "anonymous": false,
          "inputs": [
            {
              "indexed": false,
              "internalType": "uint256",
              "name": "winner",
              "type": "uint256"
            }
          ],
          "name": "LogElectionEnded",
          "type": "event"
        },
        {
          "anonymous": false,
          "inputs": [
            {
              "indexed": false,
              "internalType": "uint8",
              "name": "winner",
              "type": "uint8"
            },
            {
              "indexed": false,
              "internalType": "uint8",
              "name": "stateSeats",
              "type": "uint8"
            },
            {
              "indexed": false,
              "internalType": "string",
              "name": "state",
              "type": "string"
            }
          ],
          "name": "LogStateResult",
          "type": "event"
        },
        {
          "inputs": [],
          "name": "BIDEN",
          "outputs": [
            {
              "internalType": "uint8",
              "name": "",
              "type": "uint8"
            }
          ],
          "stateMutability": "view",
          "type": "function"
        },
        {
          "inputs": [],
          "name": "TRUMP",
          "outputs": [
            {
              "internalType": "uint8",
              "name": "",
              "type": "uint8"
            }
          ],
          "stateMutability": "view",
          "type": "function"
        },
        {
          "inputs": [],
          "name": "currentLeader",
          "outputs": [
            {
              "internalType": "uint8",
              "name": "",
              "type": "uint8"
            }
          ],
          "stateMutability": "view",
          "type": "function"
        },
        {
          "inputs": [],
          "name": "electionEnded",
          "outputs": [
            {
              "internalType": "bool",
              "name": "",
              "type": "bool"
            }
          ],
          "stateMutability": "view",
          "type": "function"
        },
        {
          "inputs": [],
          "name": "endElection",
          "outputs": [],
          "stateMutability": "nonpayable",
          "type": "function"
        },
        {
          "inputs": [],
          "name": "owner",
          "outputs": [
            {
              "internalType": "address",
              "name": "",
              "type": "address"
            }
          ],
          "stateMutability": "view",
          "type": "function"
        },
        {
          "inputs": [
            {
              "internalType": "string",
              "name": "",
              "type": "string"
            }
          ],
          "name": "resultsSubmitted",
          "outputs": [
            {
              "internalType": "bool",
              "name": "",
              "type": "bool"
            }
          ],
          "stateMutability": "view",
          "type": "function"
        },
        {
          "inputs": [
            {
              "internalType": "uint8",
              "name": "",
              "type": "uint8"
            }
          ],
          "name": "seats",
          "outputs": [
            {
              "internalType": "uint8",
              "name": "",
              "type": "uint8"
            }
          ],
          "stateMutability": "view",
          "type": "function"
        },
        {
          "inputs": [
            {
              "components": [
                {
                  "internalType": "string",
                  "name": "name",
                  "type": "string"
                },
                {
                  "internalType": "uint256",
                  "name": "votesBiden",
                  "type": "uint256"
                },
                {
                  "internalType": "uint256",
                  "name": "votesTrump",
                  "type": "uint256"
                },
                {
                  "internalType": "uint8",
                  "name": "stateSeats",
                  "type": "uint8"
                }
              ],
              "internalType": "struct USElection.StateResult",
              "name": "result",
              "type": "tuple"
            }
          ],
          "name": "submitStateResult",
          "outputs": [],
          "stateMutability": "nonpayable",
          "type": "function"
        }
      ],
      "evm": {
        "bytecode": {
          "linkReferences": {},
          "object": "608060405234801561001057600080fd5b50336000806101000a81548173ffffffffffffffffffffffffffffffffffffffff021916908373ffffffffffffffffffffffffffffffffffffffff160217905550610e4b806100606000396000f3fe608060405234801561001057600080fd5b50600436106100935760003560e01c8063713d87c511610066578063713d87c51461010e5780638da5cb5b1461013e578063ac4bd53a1461015c578063c94ca9e31461017a578063e494a8831461019857610093565b80632d78d8e51461009857806337ad98ec146100b657806359f78468146100e657806369b36bd4146100f0575b600080fd5b6100a06101b4565b6040516100ad9190610bbd565b60405180910390f35b6100d060048036038101906100cb9190610814565b6101b9565b6040516100dd9190610ae7565b60405180910390f35b6100ee6101ef565b005b6100f8610328565b6040516101059190610bbd565b60405180910390f35b61012860048036038101906101239190610896565b61032d565b6040516101359190610bbd565b60405180910390f35b61014661034d565b6040516101539190610acc565b60405180910390f35b610164610371565b6040516101719190610bbd565b60405180910390f35b610182610445565b60405161018f9190610ae7565b60405180910390f35b6101b260048036038101906101ad9190610855565b610458565b005b600281565b6002818051602081018201805184825260208301602085012081835280955050505050506000915054906101000a900460ff1681565b3373ffffffffffffffffffffffffffffffffffffffff1660008054906101000a900473ffffffffffffffffffffffffffffffffffffffff1673ffffffffffffffffffffffffffffffffffffffff161461027d576040517f08c379a000000000000000000000000000000000000000000000000000000000815260040161027490610b82565b60405180910390fd5b600060149054906101000a900460ff16156102cd576040517f08c379a00000000000000000000000000000000000000000000000000000000081526004016102c490610b22565b60405180910390fd5b6001600060146101000a81548160ff0219169083151502179055507faacb23683ec1a0e9b52f9a6264edf58ad322ac62079d65ea7363a2d400f439f4610311610371565b60405161031e9190610ba2565b60405180910390a1565b600181565b60016020528060005260406000206000915054906101000a900460ff1681565b60008054906101000a900473ffffffffffffffffffffffffffffffffffffffff1681565b600060016000600260ff1660ff16815260200190815260200160002060009054906101000a900460ff1660ff1660016000600160ff1660ff16815260200190815260200160002060009054906101000a900460ff1660ff1611156103d85760019050610442565b60016000600160ff1660ff16815260200190815260200160002060009054906101000a900460ff1660ff1660016000600260ff1660ff16815260200190815260200160002060009054906101000a900460ff1660ff16111561043d5760029050610442565b600090505b90565b600060149054906101000a900460ff1681565b3373ffffffffffffffffffffffffffffffffffffffff1660008054906101000a900473ffffffffffffffffffffffffffffffffffffffff1673ffffffffffffffffffffffffffffffffffffffff16146104e6576040517f08c379a00000000000000000000000000000000000000000000000000000000081526004016104dd90610b82565b60405180910390fd5b600060149054906101000a900460ff1615610536576040517f08c379a000000000000000000000000000000000000000000000000000000000815260040161052d90610b22565b60405180910390fd5b600081606001602081019061054b9190610896565b60ff161161058e576040517f08c379a000000000000000000000000000000000000000000000000000000000815260040161058590610b62565b60405180910390fd5b8060400135816020013514156105d9576040517f08c379a00000000000000000000000000000000000000000000000000000000081526004016105d090610b42565b60405180910390fd5b60028180600001906105eb9190610c18565b6040516105f9929190610ab3565b908152602001604051809103902060009054906101000a900460ff1615610655576040517f08c379a000000000000000000000000000000000000000000000000000000000815260040161064c90610b02565b60405180910390fd5b60008160400135826020013511156106705760019050610675565b600290505b8160600160208101906106889190610896565b600160008360ff1660ff16815260200190815260200160002060008282829054906101000a900460ff166106bc9190610cec565b92506101000a81548160ff021916908360ff160217905550600160028380600001906106e89190610c18565b6040516106f6929190610ab3565b908152602001604051809103902060006101000a81548160ff0219169083151502179055507fa2e71fe38f1afa3762cf9d2ea7bb6a4d272a90fd6f9392f3acedd3b542046b46818360600160208101906107509190610896565b8480600001906107609190610c18565b6040516107709493929190610bd8565b60405180910390a15050565b600061078f61078a84610ca0565b610c6f565b9050828152602081018484840111156107a757600080fd5b6107b2848285610d80565b509392505050565b600082601f8301126107cb57600080fd5b81356107db84826020860161077c565b91505092915050565b6000608082840312156107f657600080fd5b81905092915050565b60008135905061080e81610dfe565b92915050565b60006020828403121561082657600080fd5b600082013567ffffffffffffffff81111561084057600080fd5b61084c848285016107ba565b91505092915050565b60006020828403121561086757600080fd5b600082013567ffffffffffffffff81111561088157600080fd5b61088d848285016107e4565b91505092915050565b6000602082840312156108a857600080fd5b60006108b6848285016107ff565b91505092915050565b6108c881610d23565b82525050565b6108d781610d35565b82525050565b60006108e98385610cd0565b93506108f6838584610d80565b6108ff83610ded565b840190509392505050565b60006109168385610ce1565b9350610923838584610d80565b82840190509392505050565b600061093c602883610cd0565b91507f5468697320737461746520726573756c742077617320616c726561647920737560008301527f626d6974746564210000000000000000000000000000000000000000000000006020830152604082019050919050565b60006109a2601e83610cd0565b91507f54686520656c656374696f6e2068617320656e64656420616c726561647900006000830152602082019050919050565b60006109e2601583610cd0565b91507f54686572652063616e6e6f7420626520612074696500000000000000000000006000830152602082019050919050565b6000610a22602083610cd0565b91507f537461746573206d7573742068617665206174206c65617374203120736561746000830152602082019050919050565b6000610a62601883610cd0565b91507f4e6f7420696e766f6b656420627920746865206f776e657200000000000000006000830152602082019050919050565b610a9e81610d6e565b82525050565b610aad81610d61565b82525050565b6000610ac082848661090a565b91508190509392505050565b6000602082019050610ae160008301846108bf565b92915050565b6000602082019050610afc60008301846108ce565b92915050565b60006020820190508181036000830152610b1b8161092f565b9050919050565b60006020820190508181036000830152610b3b81610995565b9050919050565b60006020820190508181036000830152610b5b816109d5565b9050919050565b60006020820190508181036000830152610b7b81610a15565b9050919050565b60006020820190508181036000830152610b9b81610a55565b9050919050565b6000602082019050610bb76000830184610a95565b92915050565b6000602082019050610bd26000830184610aa4565b92915050565b6000606082019050610bed6000830187610aa4565b610bfa6020830186610aa4565b8181036040830152610c0d8184866108dd565b905095945050505050565b60008083356001602003843603038112610c3157600080fd5b80840192508235915067ffffffffffffffff821115610c4f57600080fd5b602083019250600182023603831315610c6757600080fd5b509250929050565b6000604051905081810181811067ffffffffffffffff82111715610c9657610c95610dbe565b5b8060405250919050565b600067ffffffffffffffff821115610cbb57610cba610dbe565b5b601f19601f8301169050602081019050919050565b600082825260208201905092915050565b600081905092915050565b6000610cf782610d61565b9150610d0283610d61565b92508260ff03821115610d1857610d17610d8f565b5b828201905092915050565b6000610d2e82610d41565b9050919050565b60008115159050919050565b600073ffffffffffffffffffffffffffffffffffffffff82169050919050565b600060ff82169050919050565b6000610d7982610d61565b9050919050565b82818337600083830152505050565b7f4e487b7100000000000000000000000000000000000000000000000000000000600052601160045260246000fd5b7f4e487b7100000000000000000000000000000000000000000000000000000000600052604160045260246000fd5b6000601f19601f8301169050919050565b610e0781610d61565b8114610e1257600080fd5b5056fea2646970667358221220e0bce836e9c94211a14c5c7662d63f1d06ee1158dc05936a8db7c03c976a248f64736f6c63430008000033",
          "opcodes": "PUSH1 0x80 PUSH1 0x40 MSTORE CALLVALUE DUP1 ISZERO PUSH2 0x10 JUMPI PUSH1 0x0 DUP1 REVERT JUMPDEST POP CALLER PUSH1 0x0 DUP1 PUSH2 0x100 EXP DUP2 SLOAD DUP2 PUSH20 0xFFFFFFFFFFFFFFFFFFFFFFFFFFFFFFFFFFFFFFFF MUL NOT AND SWAP1 DUP4 PUSH20 0xFFFFFFFFFFFFFFFFFFFFFFFFFFFFFFFFFFFFFFFF AND MUL OR SWAP1 SSTORE POP PUSH2 0xE4B DUP1 PUSH2 0x60 PUSH1 0x0 CODECOPY PUSH1 0x0 RETURN INVALID PUSH1 0x80 PUSH1 0x40 MSTORE CALLVALUE DUP1 ISZERO PUSH2 0x10 JUMPI PUSH1 0x0 DUP1 REVERT JUMPDEST POP PUSH1 0x4 CALLDATASIZE LT PUSH2 0x93 JUMPI PUSH1 0x0 CALLDATALOAD PUSH1 0xE0 SHR DUP1 PUSH4 0x713D87C5 GT PUSH2 0x66 JUMPI DUP1 PUSH4 0x713D87C5 EQ PUSH2 0x10E JUMPI DUP1 PUSH4 0x8DA5CB5B EQ PUSH2 0x13E JUMPI DUP1 PUSH4 0xAC4BD53A EQ PUSH2 0x15C JUMPI DUP1 PUSH4 0xC94CA9E3 EQ PUSH2 0x17A JUMPI DUP1 PUSH4 0xE494A883 EQ PUSH2 0x198 JUMPI PUSH2 0x93 JUMP JUMPDEST DUP1 PUSH4 0x2D78D8E5 EQ PUSH2 0x98 JUMPI DUP1 PUSH4 0x37AD98EC EQ PUSH2 0xB6 JUMPI DUP1 PUSH4 0x59F78468 EQ PUSH2 0xE6 JUMPI DUP1 PUSH4 0x69B36BD4 EQ PUSH2 0xF0 JUMPI JUMPDEST PUSH1 0x0 DUP1 REVERT JUMPDEST PUSH2 0xA0 PUSH2 0x1B4 JUMP JUMPDEST PUSH1 0x40 MLOAD PUSH2 0xAD SWAP2 SWAP1 PUSH2 0xBBD JUMP JUMPDEST PUSH1 0x40 MLOAD DUP1 SWAP2 SUB SWAP1 RETURN JUMPDEST PUSH2 0xD0 PUSH1 0x4 DUP1 CALLDATASIZE SUB DUP2 ADD SWAP1 PUSH2 0xCB SWAP2 SWAP1 PUSH2 0x814 JUMP JUMPDEST PUSH2 0x1B9 JUMP JUMPDEST PUSH1 0x40 MLOAD PUSH2 0xDD SWAP2 SWAP1 PUSH2 0xAE7 JUMP JUMPDEST PUSH1 0x40 MLOAD DUP1 SWAP2 SUB SWAP1 RETURN JUMPDEST PUSH2 0xEE PUSH2 0x1EF JUMP JUMPDEST STOP JUMPDEST PUSH2 0xF8 PUSH2 0x328 JUMP JUMPDEST PUSH1 0x40 MLOAD PUSH2 0x105 SWAP2 SWAP1 PUSH2 0xBBD JUMP JUMPDEST PUSH1 0x40 MLOAD DUP1 SWAP2 SUB SWAP1 RETURN JUMPDEST PUSH2 0x128 PUSH1 0x4 DUP1 CALLDATASIZE SUB DUP2 ADD SWAP1 PUSH2 0x123 SWAP2 SWAP1 PUSH2 0x896 JUMP JUMPDEST PUSH2 0x32D JUMP JUMPDEST PUSH1 0x40 MLOAD PUSH2 0x135 SWAP2 SWAP1 PUSH2 0xBBD JUMP JUMPDEST PUSH1 0x40 MLOAD DUP1 SWAP2 SUB SWAP1 RETURN JUMPDEST PUSH2 0x146 PUSH2 0x34D JUMP JUMPDEST PUSH1 0x40 MLOAD PUSH2 0x153 SWAP2 SWAP1 PUSH2 0xACC JUMP JUMPDEST PUSH1 0x40 MLOAD DUP1 SWAP2 SUB SWAP1 RETURN JUMPDEST PUSH2 0x164 PUSH2 0x371 JUMP JUMPDEST PUSH1 0x40 MLOAD PUSH2 0x171 SWAP2 SWAP1 PUSH2 0xBBD JUMP JUMPDEST PUSH1 0x40 MLOAD DUP1 SWAP2 SUB SWAP1 RETURN JUMPDEST PUSH2 0x182 PUSH2 0x445 JUMP JUMPDEST PUSH1 0x40 MLOAD PUSH2 0x18F SWAP2 SWAP1 PUSH2 0xAE7 JUMP JUMPDEST PUSH1 0x40 MLOAD DUP1 SWAP2 SUB SWAP1 RETURN JUMPDEST PUSH2 0x1B2 PUSH1 0x4 DUP1 CALLDATASIZE SUB DUP2 ADD SWAP1 PUSH2 0x1AD SWAP2 SWAP1 PUSH2 0x855 JUMP JUMPDEST PUSH2 0x458 JUMP JUMPDEST STOP JUMPDEST PUSH1 0x2 DUP2 JUMP JUMPDEST PUSH1 0x2 DUP2 DUP1 MLOAD PUSH1 0x20 DUP2 ADD DUP3 ADD DUP1 MLOAD DUP5 DUP3 MSTORE PUSH1 0x20 DUP4 ADD PUSH1 0x20 DUP6 ADD KECCAK256 DUP2 DUP4 MSTORE DUP1 SWAP6 POP POP POP POP POP POP PUSH1 0x0 SWAP2 POP SLOAD SWAP1 PUSH2 0x100 EXP SWAP1 DIV PUSH1 0xFF AND DUP2 JUMP JUMPDEST CALLER PUSH20 0xFFFFFFFFFFFFFFFFFFFFFFFFFFFFFFFFFFFFFFFF AND PUSH1 0x0 DUP1 SLOAD SWAP1 PUSH2 0x100 EXP SWAP1 DIV PUSH20 0xFFFFFFFFFFFFFFFFFFFFFFFFFFFFFFFFFFFFFFFF AND PUSH20 0xFFFFFFFFFFFFFFFFFFFFFFFFFFFFFFFFFFFFFFFF AND EQ PUSH2 0x27D JUMPI PUSH1 0x40 MLOAD PUSH32 0x8C379A000000000000000000000000000000000000000000000000000000000 DUP2 MSTORE PUSH1 0x4 ADD PUSH2 0x274 SWAP1 PUSH2 0xB82 JUMP JUMPDEST PUSH1 0x40 MLOAD DUP1 SWAP2 SUB SWAP1 REVERT JUMPDEST PUSH1 0x0 PUSH1 0x14 SWAP1 SLOAD SWAP1 PUSH2 0x100 EXP SWAP1 DIV PUSH1 0xFF AND ISZERO PUSH2 0x2CD JUMPI PUSH1 0x40 MLOAD PUSH32 0x8C379A000000000000000000000000000000000000000000000000000000000 DUP2 MSTORE PUSH1 0x4 ADD PUSH2 0x2C4 SWAP1 PUSH2 0xB22 JUMP JUMPDEST PUSH1 0x40 MLOAD DUP1 SWAP2 SUB SWAP1 REVERT JUMPDEST PUSH1 0x1 PUSH1 0x0 PUSH1 0x14 PUSH2 0x100 EXP DUP2 SLOAD DUP2 PUSH1 0xFF MUL NOT AND SWAP1 DUP4 ISZERO ISZERO MUL OR SWAP1 SSTORE POP PUSH32 0xAACB23683EC1A0E9B52F9A6264EDF58AD322AC62079D65EA7363A2D400F439F4 PUSH2 0x311 PUSH2 0x371 JUMP JUMPDEST PUSH1 0x40 MLOAD PUSH2 0x31E SWAP2 SWAP1 PUSH2 0xBA2 JUMP JUMPDEST PUSH1 0x40 MLOAD DUP1 SWAP2 SUB SWAP1 LOG1 JUMP JUMPDEST PUSH1 0x1 DUP2 JUMP JUMPDEST PUSH1 0x1 PUSH1 0x20 MSTORE DUP1 PUSH1 0x0 MSTORE PUSH1 0x40 PUSH1 0x0 KECCAK256 PUSH1 0x0 SWAP2 POP SLOAD SWAP1 PUSH2 0x100 EXP SWAP1 DIV PUSH1 0xFF AND DUP2 JUMP JUMPDEST PUSH1 0x0 DUP1 SLOAD SWAP1 PUSH2 0x100 EXP SWAP1 DIV PUSH20 0xFFFFFFFFFFFFFFFFFFFFFFFFFFFFFFFFFFFFFFFF AND DUP2 JUMP JUMPDEST PUSH1 0x0 PUSH1 0x1 PUSH1 0x0 PUSH1 0x2 PUSH1 0xFF AND PUSH1 0xFF AND DUP2 MSTORE PUSH1 0x20 ADD SWAP1 DUP2 MSTORE PUSH1 0x20 ADD PUSH1 0x0 KECCAK256 PUSH1 0x0 SWAP1 SLOAD SWAP1 PUSH2 0x100 EXP SWAP1 DIV PUSH1 0xFF AND PUSH1 0xFF AND PUSH1 0x1 PUSH1 0x0 PUSH1 0x1 PUSH1 0xFF AND PUSH1 0xFF AND DUP2 MSTORE PUSH1 0x20 ADD SWAP1 DUP2 MSTORE PUSH1 0x20 ADD PUSH1 0x0 KECCAK256 PUSH1 0x0 SWAP1 SLOAD SWAP1 PUSH2 0x100 EXP SWAP1 DIV PUSH1 0xFF AND PUSH1 0xFF AND GT ISZERO PUSH2 0x3D8 JUMPI PUSH1 0x1 SWAP1 POP PUSH2 0x442 JUMP JUMPDEST PUSH1 0x1 PUSH1 0x0 PUSH1 0x1 PUSH1 0xFF AND PUSH1 0xFF AND DUP2 MSTORE PUSH1 0x20 ADD SWAP1 DUP2 MSTORE PUSH1 0x20 ADD PUSH1 0x0 KECCAK256 PUSH1 0x0 SWAP1 SLOAD SWAP1 PUSH2 0x100 EXP SWAP1 DIV PUSH1 0xFF AND PUSH1 0xFF AND PUSH1 0x1 PUSH1 0x0 PUSH1 0x2 PUSH1 0xFF AND PUSH1 0xFF AND DUP2 MSTORE PUSH1 0x20 ADD SWAP1 DUP2 MSTORE PUSH1 0x20 ADD PUSH1 0x0 KECCAK256 PUSH1 0x0 SWAP1 SLOAD SWAP1 PUSH2 0x100 EXP SWAP1 DIV PUSH1 0xFF AND PUSH1 0xFF AND GT ISZERO PUSH2 0x43D JUMPI PUSH1 0x2 SWAP1 POP PUSH2 0x442 JUMP JUMPDEST PUSH1 0x0 SWAP1 POP JUMPDEST SWAP1 JUMP JUMPDEST PUSH1 0x0 PUSH1 0x14 SWAP1 SLOAD SWAP1 PUSH2 0x100 EXP SWAP1 DIV PUSH1 0xFF AND DUP2 JUMP JUMPDEST CALLER PUSH20 0xFFFFFFFFFFFFFFFFFFFFFFFFFFFFFFFFFFFFFFFF AND PUSH1 0x0 DUP1 SLOAD SWAP1 PUSH2 0x100 EXP SWAP1 DIV PUSH20 0xFFFFFFFFFFFFFFFFFFFFFFFFFFFFFFFFFFFFFFFF AND PUSH20 0xFFFFFFFFFFFFFFFFFFFFFFFFFFFFFFFFFFFFFFFF AND EQ PUSH2 0x4E6 JUMPI PUSH1 0x40 MLOAD PUSH32 0x8C379A000000000000000000000000000000000000000000000000000000000 DUP2 MSTORE PUSH1 0x4 ADD PUSH2 0x4DD SWAP1 PUSH2 0xB82 JUMP JUMPDEST PUSH1 0x40 MLOAD DUP1 SWAP2 SUB SWAP1 REVERT JUMPDEST PUSH1 0x0 PUSH1 0x14 SWAP1 SLOAD SWAP1 PUSH2 0x100 EXP SWAP1 DIV PUSH1 0xFF AND ISZERO PUSH2 0x536 JUMPI PUSH1 0x40 MLOAD PUSH32 0x8C379A000000000000000000000000000000000000000000000000000000000 DUP2 MSTORE PUSH1 0x4 ADD PUSH2 0x52D SWAP1 PUSH2 0xB22 JUMP JUMPDEST PUSH1 0x40 MLOAD DUP1 SWAP2 SUB SWAP1 REVERT JUMPDEST PUSH1 0x0 DUP2 PUSH1 0x60 ADD PUSH1 0x20 DUP2 ADD SWAP1 PUSH2 0x54B SWAP2 SWAP1 PUSH2 0x896 JUMP JUMPDEST PUSH1 0xFF AND GT PUSH2 0x58E JUMPI PUSH1 0x40 MLOAD PUSH32 0x8C379A000000000000000000000000000000000000000000000000000000000 DUP2 MSTORE PUSH1 0x4 ADD PUSH2 0x585 SWAP1 PUSH2 0xB62 JUMP JUMPDEST PUSH1 0x40 MLOAD DUP1 SWAP2 SUB SWAP1 REVERT JUMPDEST DUP1 PUSH1 0x40 ADD CALLDATALOAD DUP2 PUSH1 0x20 ADD CALLDATALOAD EQ ISZERO PUSH2 0x5D9 JUMPI PUSH1 0x40 MLOAD PUSH32 0x8C379A000000000000000000000000000000000000000000000000000000000 DUP2 MSTORE PUSH1 0x4 ADD PUSH2 0x5D0 SWAP1 PUSH2 0xB42 JUMP JUMPDEST PUSH1 0x40 MLOAD DUP1 SWAP2 SUB SWAP1 REVERT JUMPDEST PUSH1 0x2 DUP2 DUP1 PUSH1 0x0 ADD SWAP1 PUSH2 0x5EB SWAP2 SWAP1 PUSH2 0xC18 JUMP JUMPDEST PUSH1 0x40 MLOAD PUSH2 0x5F9 SWAP3 SWAP2 SWAP1 PUSH2 0xAB3 JUMP JUMPDEST SWAP1 DUP2 MSTORE PUSH1 0x20 ADD PUSH1 0x40 MLOAD DUP1 SWAP2 SUB SWAP1 KECCAK256 PUSH1 0x0 SWAP1 SLOAD SWAP1 PUSH2 0x100 EXP SWAP1 DIV PUSH1 0xFF AND ISZERO PUSH2 0x655 JUMPI PUSH1 0x40 MLOAD PUSH32 0x8C379A000000000000000000000000000000000000000000000000000000000 DUP2 MSTORE PUSH1 0x4 ADD PUSH2 0x64C SWAP1 PUSH2 0xB02 JUMP JUMPDEST PUSH1 0x40 MLOAD DUP1 SWAP2 SUB SWAP1 REVERT JUMPDEST PUSH1 0x0 DUP2 PUSH1 0x40 ADD CALLDATALOAD DUP3 PUSH1 0x20 ADD CALLDATALOAD GT ISZERO PUSH2 0x670 JUMPI PUSH1 0x1 SWAP1 POP PUSH2 0x675 JUMP JUMPDEST PUSH1 0x2 SWAP1 POP JUMPDEST DUP2 PUSH1 0x60 ADD PUSH1 0x20 DUP2 ADD SWAP1 PUSH2 0x688 SWAP2 SWAP1 PUSH2 0x896 JUMP JUMPDEST PUSH1 0x1 PUSH1 0x0 DUP4 PUSH1 0xFF AND PUSH1 0xFF AND DUP2 MSTORE PUSH1 0x20 ADD SWAP1 DUP2 MSTORE PUSH1 0x20 ADD PUSH1 0x0 KECCAK256 PUSH1 0x0 DUP3 DUP3 DUP3 SWAP1 SLOAD SWAP1 PUSH2 0x100 EXP SWAP1 DIV PUSH1 0xFF AND PUSH2 0x6BC SWAP2 SWAP1 PUSH2 0xCEC JUMP JUMPDEST SWAP3 POP PUSH2 0x100 EXP DUP2 SLOAD DUP2 PUSH1 0xFF MUL NOT AND SWAP1 DUP4 PUSH1 0xFF AND MUL OR SWAP1 SSTORE POP PUSH1 0x1 PUSH1 0x2 DUP4 DUP1 PUSH1 0x0 ADD SWAP1 PUSH2 0x6E8 SWAP2 SWAP1 PUSH2 0xC18 JUMP JUMPDEST PUSH1 0x40 MLOAD PUSH2 0x6F6 SWAP3 SWAP2 SWAP1 PUSH2 0xAB3 JUMP JUMPDEST SWAP1 DUP2 MSTORE PUSH1 0x20 ADD PUSH1 0x40 MLOAD DUP1 SWAP2 SUB SWAP1 KECCAK256 PUSH1 0x0 PUSH2 0x100 EXP DUP2 SLOAD DUP2 PUSH1 0xFF MUL NOT AND SWAP1 DUP4 ISZERO ISZERO MUL OR SWAP1 SSTORE POP PUSH32 0xA2E71FE38F1AFA3762CF9D2EA7BB6A4D272A90FD6F9392F3ACEDD3B542046B46 DUP2 DUP4 PUSH1 0x60 ADD PUSH1 0x20 DUP2 ADD SWAP1 PUSH2 0x750 SWAP2 SWAP1 PUSH2 0x896 JUMP JUMPDEST DUP5 DUP1 PUSH1 0x0 ADD SWAP1 PUSH2 0x760 SWAP2 SWAP1 PUSH2 0xC18 JUMP JUMPDEST PUSH1 0x40 MLOAD PUSH2 0x770 SWAP5 SWAP4 SWAP3 SWAP2 SWAP1 PUSH2 0xBD8 JUMP JUMPDEST PUSH1 0x40 MLOAD DUP1 SWAP2 SUB SWAP1 LOG1 POP POP JUMP JUMPDEST PUSH1 0x0 PUSH2 0x78F PUSH2 0x78A DUP5 PUSH2 0xCA0 JUMP JUMPDEST PUSH2 0xC6F JUMP JUMPDEST SWAP1 POP DUP3 DUP2 MSTORE PUSH1 0x20 DUP2 ADD DUP5 DUP5 DUP5 ADD GT ISZERO PUSH2 0x7A7 JUMPI PUSH1 0x0 DUP1 REVERT JUMPDEST PUSH2 0x7B2 DUP5 DUP3 DUP6 PUSH2 0xD80 JUMP JUMPDEST POP SWAP4 SWAP3 POP POP POP JUMP JUMPDEST PUSH1 0x0 DUP3 PUSH1 0x1F DUP4 ADD SLT PUSH2 0x7CB JUMPI PUSH1 0x0 DUP1 REVERT JUMPDEST DUP2 CALLDATALOAD PUSH2 0x7DB DUP5 DUP3 PUSH1 0x20 DUP7 ADD PUSH2 0x77C JUMP JUMPDEST SWAP2 POP POP SWAP3 SWAP2 POP POP JUMP JUMPDEST PUSH1 0x0 PUSH1 0x80 DUP3 DUP5 SUB SLT ISZERO PUSH2 0x7F6 JUMPI PUSH1 0x0 DUP1 REVERT JUMPDEST DUP2 SWAP1 POP SWAP3 SWAP2 POP POP JUMP JUMPDEST PUSH1 0x0 DUP2 CALLDATALOAD SWAP1 POP PUSH2 0x80E DUP2 PUSH2 0xDFE JUMP JUMPDEST SWAP3 SWAP2 POP POP JUMP JUMPDEST PUSH1 0x0 PUSH1 0x20 DUP3 DUP5 SUB SLT ISZERO PUSH2 0x826 JUMPI PUSH1 0x0 DUP1 REVERT JUMPDEST PUSH1 0x0 DUP3 ADD CALLDATALOAD PUSH8 0xFFFFFFFFFFFFFFFF DUP2 GT ISZERO PUSH2 0x840 JUMPI PUSH1 0x0 DUP1 REVERT JUMPDEST PUSH2 0x84C DUP5 DUP3 DUP6 ADD PUSH2 0x7BA JUMP JUMPDEST SWAP2 POP POP SWAP3 SWAP2 POP POP JUMP JUMPDEST PUSH1 0x0 PUSH1 0x20 DUP3 DUP5 SUB SLT ISZERO PUSH2 0x867 JUMPI PUSH1 0x0 DUP1 REVERT JUMPDEST PUSH1 0x0 DUP3 ADD CALLDATALOAD PUSH8 0xFFFFFFFFFFFFFFFF DUP2 GT ISZERO PUSH2 0x881 JUMPI PUSH1 0x0 DUP1 REVERT JUMPDEST PUSH2 0x88D DUP5 DUP3 DUP6 ADD PUSH2 0x7E4 JUMP JUMPDEST SWAP2 POP POP SWAP3 SWAP2 POP POP JUMP JUMPDEST PUSH1 0x0 PUSH1 0x20 DUP3 DUP5 SUB SLT ISZERO PUSH2 0x8A8 JUMPI PUSH1 0x0 DUP1 REVERT JUMPDEST PUSH1 0x0 PUSH2 0x8B6 DUP5 DUP3 DUP6 ADD PUSH2 0x7FF JUMP JUMPDEST SWAP2 POP POP SWAP3 SWAP2 POP POP JUMP JUMPDEST PUSH2 0x8C8 DUP2 PUSH2 0xD23 JUMP JUMPDEST DUP3 MSTORE POP POP JUMP JUMPDEST PUSH2 0x8D7 DUP2 PUSH2 0xD35 JUMP JUMPDEST DUP3 MSTORE POP POP JUMP JUMPDEST PUSH1 0x0 PUSH2 0x8E9 DUP4 DUP6 PUSH2 0xCD0 JUMP JUMPDEST SWAP4 POP PUSH2 0x8F6 DUP4 DUP6 DUP5 PUSH2 0xD80 JUMP JUMPDEST PUSH2 0x8FF DUP4 PUSH2 0xDED JUMP JUMPDEST DUP5 ADD SWAP1 POP SWAP4 SWAP3 POP POP POP JUMP JUMPDEST PUSH1 0x0 PUSH2 0x916 DUP4 DUP6 PUSH2 0xCE1 JUMP JUMPDEST SWAP4 POP PUSH2 0x923 DUP4 DUP6 DUP5 PUSH2 0xD80 JUMP JUMPDEST DUP3 DUP5 ADD SWAP1 POP SWAP4 SWAP3 POP POP POP JUMP JUMPDEST PUSH1 0x0 PUSH2 0x93C PUSH1 0x28 DUP4 PUSH2 0xCD0 JUMP JUMPDEST SWAP2 POP PUSH32 0x5468697320737461746520726573756C742077617320616C7265616479207375 PUSH1 0x0 DUP4 ADD MSTORE PUSH32 0x626D697474656421000000000000000000000000000000000000000000000000 PUSH1 0x20 DUP4 ADD MSTORE PUSH1 0x40 DUP3 ADD SWAP1 POP SWAP2 SWAP1 POP JUMP JUMPDEST PUSH1 0x0 PUSH2 0x9A2 PUSH1 0x1E DUP4 PUSH2 0xCD0 JUMP JUMPDEST SWAP2 POP PUSH32 0x54686520656C656374696F6E2068617320656E64656420616C72656164790000 PUSH1 0x0 DUP4 ADD MSTORE PUSH1 0x20 DUP3 ADD SWAP1 POP SWAP2 SWAP1 POP JUMP JUMPDEST PUSH1 0x0 PUSH2 0x9E2 PUSH1 0x15 DUP4 PUSH2 0xCD0 JUMP JUMPDEST SWAP2 POP PUSH32 0x54686572652063616E6E6F742062652061207469650000000000000000000000 PUSH1 0x0 DUP4 ADD MSTORE PUSH1 0x20 DUP3 ADD SWAP1 POP SWAP2 SWAP1 POP JUMP JUMPDEST PUSH1 0x0 PUSH2 0xA22 PUSH1 0x20 DUP4 PUSH2 0xCD0 JUMP JUMPDEST SWAP2 POP PUSH32 0x537461746573206D7573742068617665206174206C6561737420312073656174 PUSH1 0x0 DUP4 ADD MSTORE PUSH1 0x20 DUP3 ADD SWAP1 POP SWAP2 SWAP1 POP JUMP JUMPDEST PUSH1 0x0 PUSH2 0xA62 PUSH1 0x18 DUP4 PUSH2 0xCD0 JUMP JUMPDEST SWAP2 POP PUSH32 0x4E6F7420696E766F6B656420627920746865206F776E65720000000000000000 PUSH1 0x0 DUP4 ADD MSTORE PUSH1 0x20 DUP3 ADD SWAP1 POP SWAP2 SWAP1 POP JUMP JUMPDEST PUSH2 0xA9E DUP2 PUSH2 0xD6E JUMP JUMPDEST DUP3 MSTORE POP POP JUMP JUMPDEST PUSH2 0xAAD DUP2 PUSH2 0xD61 JUMP JUMPDEST DUP3 MSTORE POP POP JUMP JUMPDEST PUSH1 0x0 PUSH2 0xAC0 DUP3 DUP5 DUP7 PUSH2 0x90A JUMP JUMPDEST SWAP2 POP DUP2 SWAP1 POP SWAP4 SWAP3 POP POP POP JUMP JUMPDEST PUSH1 0x0 PUSH1 0x20 DUP3 ADD SWAP1 POP PUSH2 0xAE1 PUSH1 0x0 DUP4 ADD DUP5 PUSH2 0x8BF JUMP JUMPDEST SWAP3 SWAP2 POP POP JUMP JUMPDEST PUSH1 0x0 PUSH1 0x20 DUP3 ADD SWAP1 POP PUSH2 0xAFC PUSH1 0x0 DUP4 ADD DUP5 PUSH2 0x8CE JUMP JUMPDEST SWAP3 SWAP2 POP POP JUMP JUMPDEST PUSH1 0x0 PUSH1 0x20 DUP3 ADD SWAP1 POP DUP2 DUP2 SUB PUSH1 0x0 DUP4 ADD MSTORE PUSH2 0xB1B DUP2 PUSH2 0x92F JUMP JUMPDEST SWAP1 POP SWAP2 SWAP1 POP JUMP JUMPDEST PUSH1 0x0 PUSH1 0x20 DUP3 ADD SWAP1 POP DUP2 DUP2 SUB PUSH1 0x0 DUP4 ADD MSTORE PUSH2 0xB3B DUP2 PUSH2 0x995 JUMP JUMPDEST SWAP1 POP SWAP2 SWAP1 POP JUMP JUMPDEST PUSH1 0x0 PUSH1 0x20 DUP3 ADD SWAP1 POP DUP2 DUP2 SUB PUSH1 0x0 DUP4 ADD MSTORE PUSH2 0xB5B DUP2 PUSH2 0x9D5 JUMP JUMPDEST SWAP1 POP SWAP2 SWAP1 POP JUMP JUMPDEST PUSH1 0x0 PUSH1 0x20 DUP3 ADD SWAP1 POP DUP2 DUP2 SUB PUSH1 0x0 DUP4 ADD MSTORE PUSH2 0xB7B DUP2 PUSH2 0xA15 JUMP JUMPDEST SWAP1 POP SWAP2 SWAP1 POP JUMP JUMPDEST PUSH1 0x0 PUSH1 0x20 DUP3 ADD SWAP1 POP DUP2 DUP2 SUB PUSH1 0x0 DUP4 ADD MSTORE PUSH2 0xB9B DUP2 PUSH2 0xA55 JUMP JUMPDEST SWAP1 POP SWAP2 SWAP1 POP JUMP JUMPDEST PUSH1 0x0 PUSH1 0x20 DUP3 ADD SWAP1 POP PUSH2 0xBB7 PUSH1 0x0 DUP4 ADD DUP5 PUSH2 0xA95 JUMP JUMPDEST SWAP3 SWAP2 POP POP JUMP JUMPDEST PUSH1 0x0 PUSH1 0x20 DUP3 ADD SWAP1 POP PUSH2 0xBD2 PUSH1 0x0 DUP4 ADD DUP5 PUSH2 0xAA4 JUMP JUMPDEST SWAP3 SWAP2 POP POP JUMP JUMPDEST PUSH1 0x0 PUSH1 0x60 DUP3 ADD SWAP1 POP PUSH2 0xBED PUSH1 0x0 DUP4 ADD DUP8 PUSH2 0xAA4 JUMP JUMPDEST PUSH2 0xBFA PUSH1 0x20 DUP4 ADD DUP7 PUSH2 0xAA4 JUMP JUMPDEST DUP2 DUP2 SUB PUSH1 0x40 DUP4 ADD MSTORE PUSH2 0xC0D DUP2 DUP5 DUP7 PUSH2 0x8DD JUMP JUMPDEST SWAP1 POP SWAP6 SWAP5 POP POP POP POP POP JUMP JUMPDEST PUSH1 0x0 DUP1 DUP4 CALLDATALOAD PUSH1 0x1 PUSH1 0x20 SUB DUP5 CALLDATASIZE SUB SUB DUP2 SLT PUSH2 0xC31 JUMPI PUSH1 0x0 DUP1 REVERT JUMPDEST DUP1 DUP5 ADD SWAP3 POP DUP3 CALLDATALOAD SWAP2 POP PUSH8 0xFFFFFFFFFFFFFFFF DUP3 GT ISZERO PUSH2 0xC4F JUMPI PUSH1 0x0 DUP1 REVERT JUMPDEST PUSH1 0x20 DUP4 ADD SWAP3 POP PUSH1 0x1 DUP3 MUL CALLDATASIZE SUB DUP4 SGT ISZERO PUSH2 0xC67 JUMPI PUSH1 0x0 DUP1 REVERT JUMPDEST POP SWAP3 POP SWAP3 SWAP1 POP JUMP JUMPDEST PUSH1 0x0 PUSH1 0x40 MLOAD SWAP1 POP DUP2 DUP2 ADD DUP2 DUP2 LT PUSH8 0xFFFFFFFFFFFFFFFF DUP3 GT OR ISZERO PUSH2 0xC96 JUMPI PUSH2 0xC95 PUSH2 0xDBE JUMP JUMPDEST JUMPDEST DUP1 PUSH1 0x40 MSTORE POP SWAP2 SWAP1 POP JUMP JUMPDEST PUSH1 0x0 PUSH8 0xFFFFFFFFFFFFFFFF DUP3 GT ISZERO PUSH2 0xCBB JUMPI PUSH2 0xCBA PUSH2 0xDBE JUMP JUMPDEST JUMPDEST PUSH1 0x1F NOT PUSH1 0x1F DUP4 ADD AND SWAP1 POP PUSH1 0x20 DUP2 ADD SWAP1 POP SWAP2 SWAP1 POP JUMP JUMPDEST PUSH1 0x0 DUP3 DUP3 MSTORE PUSH1 0x20 DUP3 ADD SWAP1 POP SWAP3 SWAP2 POP POP JUMP JUMPDEST PUSH1 0x0 DUP2 SWAP1 POP SWAP3 SWAP2 POP POP JUMP JUMPDEST PUSH1 0x0 PUSH2 0xCF7 DUP3 PUSH2 0xD61 JUMP JUMPDEST SWAP2 POP PUSH2 0xD02 DUP4 PUSH2 0xD61 JUMP JUMPDEST SWAP3 POP DUP3 PUSH1 0xFF SUB DUP3 GT ISZERO PUSH2 0xD18 JUMPI PUSH2 0xD17 PUSH2 0xD8F JUMP JUMPDEST JUMPDEST DUP3 DUP3 ADD SWAP1 POP SWAP3 SWAP2 POP POP JUMP JUMPDEST PUSH1 0x0 PUSH2 0xD2E DUP3 PUSH2 0xD41 JUMP JUMPDEST SWAP1 POP SWAP2 SWAP1 POP JUMP JUMPDEST PUSH1 0x0 DUP2 ISZERO ISZERO SWAP1 POP SWAP2 SWAP1 POP JUMP JUMPDEST PUSH1 0x0 PUSH20 0xFFFFFFFFFFFFFFFFFFFFFFFFFFFFFFFFFFFFFFFF DUP3 AND SWAP1 POP SWAP2 SWAP1 POP JUMP JUMPDEST PUSH1 0x0 PUSH1 0xFF DUP3 AND SWAP1 POP SWAP2 SWAP1 POP JUMP JUMPDEST PUSH1 0x0 PUSH2 0xD79 DUP3 PUSH2 0xD61 JUMP JUMPDEST SWAP1 POP SWAP2 SWAP1 POP JUMP JUMPDEST DUP3 DUP2 DUP4 CALLDATACOPY PUSH1 0x0 DUP4 DUP4 ADD MSTORE POP POP POP JUMP JUMPDEST PUSH32 0x4E487B7100000000000000000000000000000000000000000000000000000000 PUSH1 0x0 MSTORE PUSH1 0x11 PUSH1 0x4 MSTORE PUSH1 0x24 PUSH1 0x0 REVERT JUMPDEST PUSH32 0x4E487B7100000000000000000000000000000000000000000000000000000000 PUSH1 0x0 MSTORE PUSH1 0x41 PUSH1 0x4 MSTORE PUSH1 0x24 PUSH1 0x0 REVERT JUMPDEST PUSH1 0x0 PUSH1 0x1F NOT PUSH1 0x1F DUP4 ADD AND SWAP1 POP SWAP2 SWAP1 POP JUMP JUMPDEST PUSH2 0xE07 DUP2 PUSH2 0xD61 JUMP JUMPDEST DUP2 EQ PUSH2 0xE12 JUMPI PUSH1 0x0 DUP1 REVERT JUMPDEST POP JUMP INVALID LOG2 PUSH5 0x6970667358 0x22 SLT KECCAK256 0xE0 0xBC 0xE8 CALLDATASIZE 0xE9 0xC9 TIMESTAMP GT LOG1 0x4C 0x5C PUSH23 0x62D63F1D06EE1158DC05936A8DB7C03C976A248F64736F PUSH13 0x63430008000033000000000000 "
        },
        "methodIdentifiers": {
          "BIDEN()": "69b36bd4",
          "TRUMP()": "2d78d8e5",
          "currentLeader()": "ac4bd53a",
          "electionEnded()": "c94ca9e3",
          "endElection()": "59f78468",
          "owner()": "8da5cb5b",
          "resultsSubmitted(string)": "37ad98ec",
          "seats(uint8)": "713d87c5",
          "submitStateResult((string,uint256,uint256,uint8))": "e494a883"
        }
      }
    }
  }
}