{
  "_format": "hh-sol-artifact-1",
  "contractName": "USElection",
  "sourceName": "contracts/Elections.sol",
  "abi": [
    {
      "anonymous": false,
      "inputs": [
        {
          "indexed": false,
          "internalType": "uint256",
          "name": "winner",
          "type": "uint256"
        }
      ],
      "name": "LogElectionEnded",
      "type": "event"
    },
    {
      "anonymous": false,
      "inputs": [
        {
          "indexed": false,
          "internalType": "uint8",
          "name": "winner",
          "type": "uint8"
        },
        {
          "indexed": false,
          "internalType": "uint8",
          "name": "stateSeats",
          "type": "uint8"
        },
        {
          "indexed": false,
          "internalType": "string",
          "name": "state",
          "type": "string"
        }
      ],
      "name": "LogStateResult",
      "type": "event"
    },
    {
      "inputs": [],
      "name": "BIDEN",
      "outputs": [
        {
          "internalType": "uint8",
          "name": "",
          "type": "uint8"
        }
      ],
      "stateMutability": "view",
      "type": "function"
    },
    {
      "inputs": [],
      "name": "TRUMP",
      "outputs": [
        {
          "internalType": "uint8",
          "name": "",
          "type": "uint8"
        }
      ],
      "stateMutability": "view",
      "type": "function"
    },
    {
      "inputs": [],
      "name": "currentLeader",
      "outputs": [
        {
          "internalType": "uint8",
          "name": "",
          "type": "uint8"
        }
      ],
      "stateMutability": "view",
      "type": "function"
    },
    {
      "inputs": [],
      "name": "electionEnded",
      "outputs": [
        {
          "internalType": "bool",
          "name": "",
          "type": "bool"
        }
      ],
      "stateMutability": "view",
      "type": "function"
    },
    {
      "inputs": [],
      "name": "endElection",
      "outputs": [],
      "stateMutability": "nonpayable",
      "type": "function"
    },
    {
      "inputs": [],
      "name": "owner",
      "outputs": [
        {
          "internalType": "address",
          "name": "",
          "type": "address"
        }
      ],
      "stateMutability": "view",
      "type": "function"
    },
    {
      "inputs": [
        {
          "internalType": "string",
          "name": "",
          "type": "string"
        }
      ],
      "name": "resultsSubmitted",
      "outputs": [
        {
          "internalType": "bool",
          "name": "",
          "type": "bool"
        }
      ],
      "stateMutability": "view",
      "type": "function"
    },
    {
      "inputs": [
        {
          "internalType": "uint8",
          "name": "",
          "type": "uint8"
        }
      ],
      "name": "seats",
      "outputs": [
        {
          "internalType": "uint8",
          "name": "",
          "type": "uint8"
        }
      ],
      "stateMutability": "view",
      "type": "function"
    },
    {
      "inputs": [
        {
          "components": [
            {
              "internalType": "string",
              "name": "name",
              "type": "string"
            },
            {
              "internalType": "uint256",
              "name": "votesBiden",
              "type": "uint256"
            },
            {
              "internalType": "uint256",
              "name": "votesTrump",
              "type": "uint256"
            },
            {
              "internalType": "uint8",
              "name": "stateSeats",
              "type": "uint8"
            }
          ],
          "internalType": "struct USElection.StateResult",
          "name": "result",
          "type": "tuple"
        }
      ],
      "name": "submitStateResult",
      "outputs": [],
      "stateMutability": "nonpayable",
      "type": "function"
    }
  ],
  "bytecode": "0x608060405234801561001057600080fd5b50336000806101000a81548173ffffffffffffffffffffffffffffffffffffffff021916908373ffffffffffffffffffffffffffffffffffffffff160217905550610e4b806100606000396000f3fe608060405234801561001057600080fd5b50600436106100935760003560e01c8063713d87c511610066578063713d87c51461010e5780638da5cb5b1461013e578063ac4bd53a1461015c578063c94ca9e31461017a578063e494a8831461019857610093565b80632d78d8e51461009857806337ad98ec146100b657806359f78468146100e657806369b36bd4146100f0575b600080fd5b6100a06101b4565b6040516100ad9190610bbd565b60405180910390f35b6100d060048036038101906100cb9190610814565b6101b9565b6040516100dd9190610ae7565b60405180910390f35b6100ee6101ef565b005b6100f8610328565b6040516101059190610bbd565b60405180910390f35b61012860048036038101906101239190610896565b61032d565b6040516101359190610bbd565b60405180910390f35b61014661034d565b6040516101539190610acc565b60405180910390f35b610164610371565b6040516101719190610bbd565b60405180910390f35b610182610445565b60405161018f9190610ae7565b60405180910390f35b6101b260048036038101906101ad9190610855565b610458565b005b600281565b6002818051602081018201805184825260208301602085012081835280955050505050506000915054906101000a900460ff1681565b3373ffffffffffffffffffffffffffffffffffffffff1660008054906101000a900473ffffffffffffffffffffffffffffffffffffffff1673ffffffffffffffffffffffffffffffffffffffff161461027d576040517f08c379a000000000000000000000000000000000000000000000000000000000815260040161027490610b82565b60405180910390fd5b600060149054906101000a900460ff16156102cd576040517f08c379a00000000000000000000000000000000000000000000000000000000081526004016102c490610b22565b60405180910390fd5b6001600060146101000a81548160ff0219169083151502179055507faacb23683ec1a0e9b52f9a6264edf58ad322ac62079d65ea7363a2d400f439f4610311610371565b60405161031e9190610ba2565b60405180910390a1565b600181565b60016020528060005260406000206000915054906101000a900460ff1681565b60008054906101000a900473ffffffffffffffffffffffffffffffffffffffff1681565b600060016000600260ff1660ff16815260200190815260200160002060009054906101000a900460ff1660ff1660016000600160ff1660ff16815260200190815260200160002060009054906101000a900460ff1660ff1611156103d85760019050610442565b60016000600160ff1660ff16815260200190815260200160002060009054906101000a900460ff1660ff1660016000600260ff1660ff16815260200190815260200160002060009054906101000a900460ff1660ff16111561043d5760029050610442565b600090505b90565b600060149054906101000a900460ff1681565b3373ffffffffffffffffffffffffffffffffffffffff1660008054906101000a900473ffffffffffffffffffffffffffffffffffffffff1673ffffffffffffffffffffffffffffffffffffffff16146104e6576040517f08c379a00000000000000000000000000000000000000000000000000000000081526004016104dd90610b82565b60405180910390fd5b600060149054906101000a900460ff1615610536576040517f08c379a000000000000000000000000000000000000000000000000000000000815260040161052d90610b22565b60405180910390fd5b600081606001602081019061054b9190610896565b60ff161161058e576040517f08c379a000000000000000000000000000000000000000000000000000000000815260040161058590610b62565b60405180910390fd5b8060400135816020013514156105d9576040517f08c379a00000000000000000000000000000000000000000000000000000000081526004016105d090610b42565b60405180910390fd5b60028180600001906105eb9190610c18565b6040516105f9929190610ab3565b908152602001604051809103902060009054906101000a900460ff1615610655576040517f08c379a000000000000000000000000000000000000000000000000000000000815260040161064c90610b02565b60405180910390fd5b60008160400135826020013511156106705760019050610675565b600290505b8160600160208101906106889190610896565b600160008360ff1660ff16815260200190815260200160002060008282829054906101000a900460ff166106bc9190610cec565b92506101000a81548160ff021916908360ff160217905550600160028380600001906106e89190610c18565b6040516106f6929190610ab3565b908152602001604051809103902060006101000a81548160ff0219169083151502179055507fa2e71fe38f1afa3762cf9d2ea7bb6a4d272a90fd6f9392f3acedd3b542046b46818360600160208101906107509190610896565b8480600001906107609190610c18565b6040516107709493929190610bd8565b60405180910390a15050565b600061078f61078a84610ca0565b610c6f565b9050828152602081018484840111156107a757600080fd5b6107b2848285610d80565b509392505050565b600082601f8301126107cb57600080fd5b81356107db84826020860161077c565b91505092915050565b6000608082840312156107f657600080fd5b81905092915050565b60008135905061080e81610dfe565b92915050565b60006020828403121561082657600080fd5b600082013567ffffffffffffffff81111561084057600080fd5b61084c848285016107ba565b91505092915050565b60006020828403121561086757600080fd5b600082013567ffffffffffffffff81111561088157600080fd5b61088d848285016107e4565b91505092915050565b6000602082840312156108a857600080fd5b60006108b6848285016107ff565b91505092915050565b6108c881610d23565b82525050565b6108d781610d35565b82525050565b60006108e98385610cd0565b93506108f6838584610d80565b6108ff83610ded565b840190509392505050565b60006109168385610ce1565b9350610923838584610d80565b82840190509392505050565b600061093c602883610cd0565b91507f5468697320737461746520726573756c742077617320616c726561647920737560008301527f626d6974746564210000000000000000000000000000000000000000000000006020830152604082019050919050565b60006109a2601e83610cd0565b91507f54686520656c656374696f6e2068617320656e64656420616c726561647900006000830152602082019050919050565b60006109e2601583610cd0565b91507f54686572652063616e6e6f7420626520612074696500000000000000000000006000830152602082019050919050565b6000610a22602083610cd0565b91507f537461746573206d7573742068617665206174206c65617374203120736561746000830152602082019050919050565b6000610a62601883610cd0565b91507f4e6f7420696e766f6b656420627920746865206f776e657200000000000000006000830152602082019050919050565b610a9e81610d6e565b82525050565b610aad81610d61565b82525050565b6000610ac082848661090a565b91508190509392505050565b6000602082019050610ae160008301846108bf565b92915050565b6000602082019050610afc60008301846108ce565b92915050565b60006020820190508181036000830152610b1b8161092f565b9050919050565b60006020820190508181036000830152610b3b81610995565b9050919050565b60006020820190508181036000830152610b5b816109d5565b9050919050565b60006020820190508181036000830152610b7b81610a15565b9050919050565b60006020820190508181036000830152610b9b81610a55565b9050919050565b6000602082019050610bb76000830184610a95565b92915050565b6000602082019050610bd26000830184610aa4565b92915050565b6000606082019050610bed6000830187610aa4565b610bfa6020830186610aa4565b8181036040830152610c0d8184866108dd565b905095945050505050565b60008083356001602003843603038112610c3157600080fd5b80840192508235915067ffffffffffffffff821115610c4f57600080fd5b602083019250600182023603831315610c6757600080fd5b509250929050565b6000604051905081810181811067ffffffffffffffff82111715610c9657610c95610dbe565b5b8060405250919050565b600067ffffffffffffffff821115610cbb57610cba610dbe565b5b601f19601f8301169050602081019050919050565b600082825260208201905092915050565b600081905092915050565b6000610cf782610d61565b9150610d0283610d61565b92508260ff03821115610d1857610d17610d8f565b5b828201905092915050565b6000610d2e82610d41565b9050919050565b60008115159050919050565b600073ffffffffffffffffffffffffffffffffffffffff82169050919050565b600060ff82169050919050565b6000610d7982610d61565b9050919050565b82818337600083830152505050565b7f4e487b7100000000000000000000000000000000000000000000000000000000600052601160045260246000fd5b7f4e487b7100000000000000000000000000000000000000000000000000000000600052604160045260246000fd5b6000601f19601f8301169050919050565b610e0781610d61565b8114610e1257600080fd5b5056fea2646970667358221220e0bce836e9c94211a14c5c7662d63f1d06ee1158dc05936a8db7c03c976a248f64736f6c63430008000033",
  "linkReferences": {},
  "deployedLinkReferences": {}
}