{
  "_format": "hh-sol-artifact-1",
  "contractName": "TechnoStore",
  "sourceName": "contracts/TechnoStore.sol",
  "abi": [
    {
      "inputs": [],
      "stateMutability": "nonpayable",
      "type": "constructor"
    },
    {
      "inputs": [
        {
          "components": [
            {
              "internalType": "uint256",
              "name": "id",
              "type": "uint256"
            },
            {
              "internalType": "string",
              "name": "name",
              "type": "string"
            },
            {
              "internalType": "uint256",
              "name": "stock",
              "type": "uint256"
            }
          ],
          "internalType": "struct TechnoStore.StoreProduct",
          "name": "product",
          "type": "tuple"
        }
      ],
      "name": "addProduct",
      "outputs": [],
      "stateMutability": "nonpayable",
      "type": "function"
    },
    {
      "inputs": [
        {
          "internalType": "uint256",
          "name": "productId",
          "type": "uint256"
        },
        {
          "internalType": "uint256",
          "name": "stockAmount",
          "type": "uint256"
        }
      ],
      "name": "addStock",
      "outputs": [],
      "stateMutability": "nonpayable",
      "type": "function"
    },
    {
      "inputs": [
        {
          "internalType": "uint256",
          "name": "",
          "type": "uint256"
        }
      ],
      "name": "availableProducts",
      "outputs": [
        {
          "internalType": "uint256",
          "name": "",
          "type": "uint256"
        }
      ],
      "stateMutability": "view",
      "type": "function"
    },
    {
      "inputs": [
        {
          "internalType": "uint256",
          "name": "productId",
          "type": "uint256"
        }
      ],
      "name": "buyProduct",
      "outputs": [],
      "stateMutability": "nonpayable",
      "type": "function"
    },
    {
      "inputs": [],
      "name": "getAvailableProducts",
      "outputs": [
        {
          "internalType": "uint256[]",
          "name": "",
          "type": "uint256[]"
        }
      ],
      "stateMutability": "view",
      "type": "function"
    },
    {
      "inputs": [
        {
          "internalType": "uint256",
          "name": "productId",
          "type": "uint256"
        }
      ],
      "name": "getBuyers",
      "outputs": [
        {
          "internalType": "address[]",
          "name": "",
          "type": "address[]"
        }
      ],
      "stateMutability": "view",
      "type": "function"
    },
    {
      "inputs": [],
      "name": "owner",
      "outputs": [
        {
          "internalType": "address",
          "name": "",
          "type": "address"
        }
      ],
      "stateMutability": "view",
      "type": "function"
    },
    {
      "inputs": [
        {
          "internalType": "uint256",
          "name": "",
          "type": "uint256"
        }
      ],
      "name": "productList",
      "outputs": [
        {
          "internalType": "uint256",
          "name": "id",
          "type": "uint256"
        },
        {
          "internalType": "string",
          "name": "name",
          "type": "string"
        },
        {
          "internalType": "uint256",
          "name": "stock",
          "type": "uint256"
        }
      ],
      "stateMutability": "view",
      "type": "function"
    },
    {
      "inputs": [
        {
          "internalType": "uint256",
          "name": "",
          "type": "uint256"
        },
        {
          "internalType": "address",
          "name": "",
          "type": "address"
        }
      ],
      "name": "productPurchases",
      "outputs": [
        {
          "internalType": "uint256",
          "name": "",
          "type": "uint256"
        }
      ],
      "stateMutability": "view",
      "type": "function"
    },
    {
      "inputs": [
        {
          "internalType": "uint256",
          "name": "",
          "type": "uint256"
        },
        {
          "internalType": "uint256",
          "name": "",
          "type": "uint256"
        }
      ],
      "name": "productsEverPurchased",
      "outputs": [
        {
          "internalType": "address",
          "name": "",
          "type": "address"
        }
      ],
      "stateMutability": "view",
      "type": "function"
    },
    {
      "inputs": [
        {
          "internalType": "uint256",
          "name": "productId",
          "type": "uint256"
        }
      ],
      "name": "returnProduct",
      "outputs": [],
      "stateMutability": "nonpayable",
      "type": "function"
    }
  ],
  "bytecode": "0x60806040523480156200001157600080fd5b50336000806101000a81548173ffffffffffffffffffffffffffffffffffffffff021916908373ffffffffffffffffffffffffffffffffffffffff160217905550600060405180606001604052806103e981526020016040518060400160405280600b81526020017f4d6163426f6f6b2050726f000000000000000000000000000000000000000000815250815260200160018152509050620000ba816200012a60201b60201c565b600060405180606001604052806103ea81526020016040518060400160405280600881526020017f695061642050726f00000000000000000000000000000000000000000000000081525081526020016005815250905062000122816200012a60201b60201c565b50506200055b565b3373ffffffffffffffffffffffffffffffffffffffff1660008054906101000a900473ffffffffffffffffffffffffffffffffffffffff1673ffffffffffffffffffffffffffffffffffffffff1614620001bb576040517f08c379a0000000000000000000000000000000000000000000000000000000008152600401620001b290620004c3565b60405180910390fd5b600081604001511162000205576040517f08c379a0000000000000000000000000000000000000000000000000000000008152600401620001fc906200047f565b60405180910390fd5b60006002600083600001518152602001908152602001600020600001541462000265576040517f08c379a00000000000000000000000000000000000000000000000000000000081526004016200025c90620004a1565b60405180910390fd5b806002600083600001518152602001908152602001600020600082015181600001556020820151816001019080519060200190620002a5929190620002e3565b506040820151816002015590505060018160000151908060018154018082558091505060019003906000526020600020016000909190919091505550565b828054620002f190620004f6565b90600052602060002090601f01602090048101928262000315576000855562000361565b82601f106200033057805160ff191683800117855562000361565b8280016001018555821562000361579182015b828111156200036057825182559160200191906001019062000343565b5b50905062000370919062000374565b5090565b5b808211156200038f57600081600090555060010162000375565b5090565b6000620003a2602683620004e5565b91507f50726f647563742073746f636b2073686f756c6420626520677265617465722060008301527f7468616e203000000000000000000000000000000000000000000000000000006020830152604082019050919050565b60006200040a601683620004e5565b91507f50726f6475637420616c726561647920657869737473000000000000000000006000830152602082019050919050565b60006200044c601883620004e5565b91507f4e6f7420696e766f6b656420627920746865206f776e657200000000000000006000830152602082019050919050565b600060208201905081810360008301526200049a8162000393565b9050919050565b60006020820190508181036000830152620004bc81620003fb565b9050919050565b60006020820190508181036000830152620004de816200043d565b9050919050565b600082825260208201905092915050565b600060028204905060018216806200050f57607f821691505b602082108114156200052657620005256200052c565b5b50919050565b7f4e487b7100000000000000000000000000000000000000000000000000000000600052602260045260246000fd5b61184f806200056b6000396000f3fe608060405234801561001057600080fd5b50600436106100a95760003560e01c80637feafd20116100715780637feafd20146101665780638642269e146101965780638da5cb5b146101b2578063b765d9e9146101d0578063cc34419714610200578063e4bcc7d41461021c576100a9565b80630ff4e2b4146100ae578063131e407d146100cc578063528c87d2146100e8578063725063d01461011a5780637edd19a21461014a575b600080fd5b6100b661024c565b6040516100c39190611360565b60405180910390f35b6100e660048036038101906100e19190610eaf565b6102a4565b005b61010260048036038101906100fd9190610eaf565b610438565b6040516101119392919061149d565b60405180910390f35b610134600480360381019061012f9190610f14565b6104ea565b6040516101419190611323565b60405180910390f35b610164600480360381019061015f9190610f14565b610538565b005b610180600480360381019061017b9190610eaf565b6106de565b60405161018d919061133e565b60405180910390f35b6101b060048036038101906101ab9190610eaf565b61077f565b005b6101ba61099c565b6040516101c79190611323565b60405180910390f35b6101ea60048036038101906101e59190610ed8565b6109c0565b6040516101f79190611482565b60405180910390f35b61021a60048036038101906102159190610e6e565b6109e5565b005b61023660048036038101906102319190610eaf565b610b93565b6040516102439190611482565b60405180910390f35b6060600180548060200260200160405190810160405280929190818152602001828054801561029a57602002820191906000526020600020905b815481526020019060010190808311610286575b5050505050905090565b60006003600083815260200190815260200160002060003373ffffffffffffffffffffffffffffffffffffffff1673ffffffffffffffffffffffffffffffffffffffff168152602001908152602001600020541415610338576040517f08c379a000000000000000000000000000000000000000000000000000000000815260040161032f906113c2565b60405180910390fd5b60646003600083815260200190815260200160002060003373ffffffffffffffffffffffffffffffffffffffff1673ffffffffffffffffffffffffffffffffffffffff16815260200190815260200160002054436103969190611620565b106103d6576040517f08c379a00000000000000000000000000000000000000000000000000000000081526004016103cd906113e2565b60405180910390fd5b6103e1816001610538565b6003600082815260200190815260200160002060003373ffffffffffffffffffffffffffffffffffffffff1673ffffffffffffffffffffffffffffffffffffffff1681526020019081526020016000206000905550565b6002602052806000526040600020600091509050806000015490806001018054610461906116d2565b80601f016020809104026020016040519081016040528092919081815260200182805461048d906116d2565b80156104da5780601f106104af576101008083540402835291602001916104da565b820191906000526020600020905b8154815290600101906020018083116104bd57829003601f168201915b5050505050908060020154905083565b6004602052816000526040600020818154811061050657600080fd5b906000526020600020016000915091509054906101000a900473ffffffffffffffffffffffffffffffffffffffff1681565b3373ffffffffffffffffffffffffffffffffffffffff1660008054906101000a900473ffffffffffffffffffffffffffffffffffffffff1673ffffffffffffffffffffffffffffffffffffffff16146105c6576040517f08c379a00000000000000000000000000000000000000000000000000000000081526004016105bd90611462565b60405180910390fd5b81600060026000838152602001908152602001600020600001541415610621576040517f08c379a000000000000000000000000000000000000000000000000000000000815260040161061890611382565b60405180910390fd5b60008211610664576040517f08c379a000000000000000000000000000000000000000000000000000000000815260040161065b90611422565b60405180910390fd5b8160026000858152602001908152602001600020600201600082825461068a91906115ca565b9250508190555081600260008581526020019081526020016000206002015414156106d95760018390806001815401808255809150506001900390600052602060002001600090919091909150555b505050565b60606004600083815260200190815260200160002080548060200260200160405190810160405280929190818152602001828054801561077357602002820191906000526020600020905b8160009054906101000a900473ffffffffffffffffffffffffffffffffffffffff1673ffffffffffffffffffffffffffffffffffffffff1681526020019060010190808311610729575b50505050509050919050565b806000600260008381526020019081526020016000206000015414156107da576040517f08c379a00000000000000000000000000000000000000000000000000000000081526004016107d190611382565b60405180910390fd5b60006003600084815260200190815260200160002060003373ffffffffffffffffffffffffffffffffffffffff1673ffffffffffffffffffffffffffffffffffffffff168152602001908152602001600020541461086d576040517f08c379a0000000000000000000000000000000000000000000000000000000008152600401610864906113a2565b60405180910390fd5b60006002600084815260200190815260200160002060020154116108c6576040517f08c379a00000000000000000000000000000000000000000000000000000000081526004016108bd90611402565b60405180910390fd5b436003600084815260200190815260200160002060003373ffffffffffffffffffffffffffffffffffffffff1673ffffffffffffffffffffffffffffffffffffffff1681526020019081526020016000208190555061092482610bb7565b60046000838152602001908152602001600020339080600181540180825580915050600190039060005260206000200160009091909190916101000a81548173ffffffffffffffffffffffffffffffffffffffff021916908373ffffffffffffffffffffffffffffffffffffffff1602179055505050565b60008054906101000a900473ffffffffffffffffffffffffffffffffffffffff1681565b6003602052816000526040600020602052806000526040600020600091509150505481565b3373ffffffffffffffffffffffffffffffffffffffff1660008054906101000a900473ffffffffffffffffffffffffffffffffffffffff1673ffffffffffffffffffffffffffffffffffffffff1614610a73576040517f08c379a0000000000000000000000000000000000000000000000000000000008152600401610a6a90611462565b60405180910390fd5b6000816040015111610aba576040517f08c379a0000000000000000000000000000000000000000000000000000000008152600401610ab190611422565b60405180910390fd5b600060026000836000015181526020019081526020016000206000015414610b17576040517f08c379a0000000000000000000000000000000000000000000000000000000008152600401610b0e90611442565b60405180910390fd5b806002600083600001518152602001908152602001600020600082015181600001556020820151816001019080519060200190610b55929190610cc1565b506040820151816002015590505060018160000151908060018154018082558091505060019003906000526020600020016000909190919091505550565b60018181548110610ba357600080fd5b906000526020600020016000915090505481565b6001600260008381526020019081526020016000206002016000828254610bde9190611620565b92505081905550600060026000838152602001908152602001600020600201541415610cbe5760005b600180549050811015610cbc578160018281548110610c4f577f4e487b7100000000000000000000000000000000000000000000000000000000600052603260045260246000fd5b90600052602060002001541415610ca95760018181548110610c9a577f4e487b7100000000000000000000000000000000000000000000000000000000600052603260045260246000fd5b90600052602060002001600090555b8080610cb490611704565b915050610c07565b505b50565b828054610ccd906116d2565b90600052602060002090601f016020900481019282610cef5760008555610d36565b82601f10610d0857805160ff1916838001178555610d36565b82800160010185558215610d36579182015b82811115610d35578251825591602001919060010190610d1a565b5b509050610d439190610d47565b5090565b5b80821115610d60576000816000905550600101610d48565b5090565b6000610d77610d728461150c565b6114db565b905082815260208101848484011115610d8f57600080fd5b610d9a848285611690565b509392505050565b600081359050610db1816117eb565b92915050565b600082601f830112610dc857600080fd5b8135610dd8848260208601610d64565b91505092915050565b600060608284031215610df357600080fd5b610dfd60606114db565b90506000610e0d84828501610e59565b600083015250602082013567ffffffffffffffff811115610e2d57600080fd5b610e3984828501610db7565b6020830152506040610e4d84828501610e59565b60408301525092915050565b600081359050610e6881611802565b92915050565b600060208284031215610e8057600080fd5b600082013567ffffffffffffffff811115610e9a57600080fd5b610ea684828501610de1565b91505092915050565b600060208284031215610ec157600080fd5b6000610ecf84828501610e59565b91505092915050565b60008060408385031215610eeb57600080fd5b6000610ef985828601610e59565b9250506020610f0a85828601610da2565b9150509250929050565b60008060408385031215610f2757600080fd5b6000610f3585828601610e59565b9250506020610f4685828601610e59565b9150509250929050565b6000610f5c8383610f80565b60208301905092915050565b6000610f748383611305565b60208301905092915050565b610f8981611654565b82525050565b610f9881611654565b82525050565b6000610fa98261155c565b610fb38185611597565b9350610fbe8361153c565b8060005b83811015610fef578151610fd68882610f50565b9750610fe18361157d565b925050600181019050610fc2565b5085935050505092915050565b600061100782611567565b61101181856115a8565b935061101c8361154c565b8060005b8381101561104d5781516110348882610f68565b975061103f8361158a565b925050600181019050611020565b5085935050505092915050565b600061106582611572565b61106f81856115b9565b935061107f81856020860161169f565b611088816117da565b840191505092915050565b60006110a06015836115b9565b91507f50726f6475637420646f65736e277420657869737400000000000000000000006000830152602082019050919050565b60006110e06021836115b9565b91507f4164647265737320616c7265616479206f776e7320746869732070726f64756360008301527f74000000000000000000000000000000000000000000000000000000000000006020830152604082019050919050565b60006111466020836115b9565b91507f4164647265737320646f65736e2774206f776e20746869732070726f647563746000830152602082019050919050565b6000611186602e836115b9565b91507f536f72727920627574206974277320746f6f206c61746520746f20726574757260008301527f6e20746869732070726f647563740000000000000000000000000000000000006020830152604082019050919050565b60006111ec6017836115b9565b91507f50726f64756374206973206f7574206f662073746f636b0000000000000000006000830152602082019050919050565b600061122c6026836115b9565b91507f50726f647563742073746f636b2073686f756c6420626520677265617465722060008301527f7468616e203000000000000000000000000000000000000000000000000000006020830152604082019050919050565b60006112926016836115b9565b91507f50726f6475637420616c726561647920657869737473000000000000000000006000830152602082019050919050565b60006112d26018836115b9565b91507f4e6f7420696e766f6b656420627920746865206f776e657200000000000000006000830152602082019050919050565b61130e81611686565b82525050565b61131d81611686565b82525050565b60006020820190506113386000830184610f8f565b92915050565b600060208201905081810360008301526113588184610f9e565b905092915050565b6000602082019050818103600083015261137a8184610ffc565b905092915050565b6000602082019050818103600083015261139b81611093565b9050919050565b600060208201905081810360008301526113bb816110d3565b9050919050565b600060208201905081810360008301526113db81611139565b9050919050565b600060208201905081810360008301526113fb81611179565b9050919050565b6000602082019050818103600083015261141b816111df565b9050919050565b6000602082019050818103600083015261143b8161121f565b9050919050565b6000602082019050818103600083015261145b81611285565b9050919050565b6000602082019050818103600083015261147b816112c5565b9050919050565b60006020820190506114976000830184611314565b92915050565b60006060820190506114b26000830186611314565b81810360208301526114c4818561105a565b90506114d36040830184611314565b949350505050565b6000604051905081810181811067ffffffffffffffff82111715611502576115016117ab565b5b8060405250919050565b600067ffffffffffffffff821115611527576115266117ab565b5b601f19601f8301169050602081019050919050565b6000819050602082019050919050565b6000819050602082019050919050565b600081519050919050565b600081519050919050565b600081519050919050565b6000602082019050919050565b6000602082019050919050565b600082825260208201905092915050565b600082825260208201905092915050565b600082825260208201905092915050565b60006115d582611686565b91506115e083611686565b9250827fffffffffffffffffffffffffffffffffffffffffffffffffffffffffffffffff038211156116155761161461174d565b5b828201905092915050565b600061162b82611686565b915061163683611686565b9250828210156116495761164861174d565b5b828203905092915050565b600061165f82611666565b9050919050565b600073ffffffffffffffffffffffffffffffffffffffff82169050919050565b6000819050919050565b82818337600083830152505050565b60005b838110156116bd5780820151818401526020810190506116a2565b838111156116cc576000848401525b50505050565b600060028204905060018216806116ea57607f821691505b602082108114156116fe576116fd61177c565b5b50919050565b600061170f82611686565b91507fffffffffffffffffffffffffffffffffffffffffffffffffffffffffffffffff8214156117425761174161174d565b5b600182019050919050565b7f4e487b7100000000000000000000000000000000000000000000000000000000600052601160045260246000fd5b7f4e487b7100000000000000000000000000000000000000000000000000000000600052602260045260246000fd5b7f4e487b7100000000000000000000000000000000000000000000000000000000600052604160045260246000fd5b6000601f19601f8301169050919050565b6117f481611654565b81146117ff57600080fd5b50565b61180b81611686565b811461181657600080fd5b5056fea2646970667358221220dbe3ea72f1f4a19fb563c475120348606358ff2265eb32402fc94c8a7021744964736f6c63430008000033",
  "linkReferences": {},
  "deployedLinkReferences": {}
}