{
  "_format": "hh-sol-artifact-1",
  "contractName": "TechnoStore",
  "sourceName": "contracts/TechnoStore.sol",
  "abi": [
    {
      "inputs": [
        {
          "components": [
            {
              "internalType": "uint256",
              "name": "id",
              "type": "uint256"
            },
            {
              "internalType": "string",
              "name": "name",
              "type": "string"
            }
          ],
          "internalType": "struct TechnoStore.StoreProduct",
          "name": "product",
          "type": "tuple"
        },
        {
          "internalType": "uint256",
          "name": "quantity",
          "type": "uint256"
        }
      ],
      "name": "addProduct",
      "outputs": [],
      "stateMutability": "nonpayable",
      "type": "function"
    },
    {
      "inputs": [],
      "name": "owner",
      "outputs": [
        {
          "internalType": "address",
          "name": "",
          "type": "address"
        }
      ],
      "stateMutability": "view",
      "type": "function"
    },
    {
      "inputs": [
        {
          "internalType": "uint256",
          "name": "",
          "type": "uint256"
        }
      ],
      "name": "productList",
      "outputs": [
        {
          "internalType": "uint256",
          "name": "id",
          "type": "uint256"
        },
        {
          "internalType": "string",
          "name": "name",
          "type": "string"
        }
      ],
      "stateMutability": "view",
      "type": "function"
    },
    {
      "inputs": [
        {
          "internalType": "address",
          "name": "",
          "type": "address"
        },
        {
          "internalType": "uint256",
          "name": "",
          "type": "uint256"
        }
      ],
      "name": "productPurchases",
      "outputs": [
        {
          "internalType": "bool",
          "name": "",
          "type": "bool"
        }
      ],
      "stateMutability": "view",
      "type": "function"
    },
    {
      "inputs": [
        {
          "internalType": "uint256",
          "name": "",
          "type": "uint256"
        }
      ],
      "name": "productStock",
      "outputs": [
        {
          "internalType": "uint256",
          "name": "",
          "type": "uint256"
        }
      ],
      "stateMutability": "view",
      "type": "function"
    }
  ],
  "bytecode": "0x608060405234801561001057600080fd5b50336000806101000a81548173ffffffffffffffffffffffffffffffffffffffff021916908373ffffffffffffffffffffffffffffffffffffffff1602179055506108d3806100606000396000f3fe608060405234801561001057600080fd5b50600436106100575760003560e01c806339f6a8051461005c578063528c87d21461008c5780635eba8401146100bd5780638652ba27146100ed5780638da5cb5b14610109575b600080fd5b610076600480360381019061007191906104c7565b610127565b6040516100839190610641565b60405180910390f35b6100a660048036038101906100a19190610557565b610156565b6040516100b4929190610697565b60405180910390f35b6100d760048036038101906100d29190610557565b610202565b6040516100e4919061067c565b60405180910390f35b61010760048036038101906101029190610503565b61021a565b005b61011161030a565b60405161011e9190610626565b60405180910390f35b60036020528160005260406000206020528060005260406000206000915091509054906101000a900460ff1681565b600160205280600052604060002060009150905080600001549080600101805461017f906107ce565b80601f01602080910402602001604051908101604052809291908181526020018280546101ab906107ce565b80156101f85780601f106101cd576101008083540402835291602001916101f8565b820191906000526020600020905b8154815290600101906020018083116101db57829003601f168201915b5050505050905082565b60026020528060005260406000206000915090505481565b3373ffffffffffffffffffffffffffffffffffffffff1660008054906101000a900473ffffffffffffffffffffffffffffffffffffffff1673ffffffffffffffffffffffffffffffffffffffff16146102a8576040517f08c379a000000000000000000000000000000000000000000000000000000000815260040161029f9061065c565b60405180910390fd5b8160016000846000015181526020019081526020016000206000820151816000015560208201518160010190805190602001906102e692919061032e565b50905050806002600084600001518152602001908152602001600020819055505050565b60008054906101000a900473ffffffffffffffffffffffffffffffffffffffff1681565b82805461033a906107ce565b90600052602060002090601f01602090048101928261035c57600085556103a3565b82601f1061037557805160ff19168380011785556103a3565b828001600101855582156103a3579182015b828111156103a2578251825591602001919060010190610387565b5b5090506103b091906103b4565b5090565b5b808211156103cd5760008160009055506001016103b5565b5090565b60006103e46103df846106f8565b6106c7565b9050828152602081018484840111156103fc57600080fd5b61040784828561078c565b509392505050565b60008135905061041e8161086f565b92915050565b600082601f83011261043557600080fd5b81356104458482602086016103d1565b91505092915050565b60006040828403121561046057600080fd5b61046a60406106c7565b9050600061047a848285016104b2565b600083015250602082013567ffffffffffffffff81111561049a57600080fd5b6104a684828501610424565b60208301525092915050565b6000813590506104c181610886565b92915050565b600080604083850312156104da57600080fd5b60006104e88582860161040f565b92505060206104f9858286016104b2565b9150509250929050565b6000806040838503121561051657600080fd5b600083013567ffffffffffffffff81111561053057600080fd5b61053c8582860161044e565b925050602061054d858286016104b2565b9150509250929050565b60006020828403121561056957600080fd5b6000610577848285016104b2565b91505092915050565b61058981610744565b82525050565b61059881610756565b82525050565b60006105a982610728565b6105b38185610733565b93506105c381856020860161079b565b6105cc8161085e565b840191505092915050565b60006105e4601883610733565b91507f4e6f7420696e766f6b656420627920746865206f776e657200000000000000006000830152602082019050919050565b61062081610782565b82525050565b600060208201905061063b6000830184610580565b92915050565b6000602082019050610656600083018461058f565b92915050565b60006020820190508181036000830152610675816105d7565b9050919050565b60006020820190506106916000830184610617565b92915050565b60006040820190506106ac6000830185610617565b81810360208301526106be818461059e565b90509392505050565b6000604051905081810181811067ffffffffffffffff821117156106ee576106ed61082f565b5b8060405250919050565b600067ffffffffffffffff8211156107135761071261082f565b5b601f19601f8301169050602081019050919050565b600081519050919050565b600082825260208201905092915050565b600061074f82610762565b9050919050565b60008115159050919050565b600073ffffffffffffffffffffffffffffffffffffffff82169050919050565b6000819050919050565b82818337600083830152505050565b60005b838110156107b957808201518184015260208101905061079e565b838111156107c8576000848401525b50505050565b600060028204905060018216806107e657607f821691505b602082108114156107fa576107f9610800565b5b50919050565b7f4e487b7100000000000000000000000000000000000000000000000000000000600052602260045260246000fd5b7f4e487b7100000000000000000000000000000000000000000000000000000000600052604160045260246000fd5b6000601f19601f8301169050919050565b61087881610744565b811461088357600080fd5b50565b61088f81610782565b811461089a57600080fd5b5056fea264697066735822122061fea9cbcb5a8919ba52f6c3ced2d38ffd347601b15f56fb5371bce227082f4964736f6c63430008000033",
  "linkReferences": {},
  "deployedLinkReferences": {}
}